:020000040800F2
:10000000D00800204D0200082D2100083B180008F0
:10001000292100082F160008A33000080000000066
:10002000000000000000000000000000512900084E
:10003000A116000800000000ED210008412A000878
:1000400067020008670200086702000867020008EC
:1000500067020008670200086702000867020008DC
:1000600067020008670200086702000867020008CC
:1000700067020008670200086702000867020008BC
:1000800067020008670200086702000867020008AC
:10009000670200086702000867020008670200089C
:1000A000670200086702000867020008670200088C
:1000B000B12A00086702000867020008670200080A
:1000C000670200086702000867020008670200086C
:1000D000670200089D2E00086702000867020008FA
:1000E000670200086702000867020008670200084C
:1000F000670200086702000867020008670200083C
:10010000670200086702000867020008670200082B
:10011000670200086702000867020008670200081B
:10012000670200086702000867020008670200080B
:1001300067020008670200086702000867020008FB
:1001400067020008670200086702000867020008EB
:1001500067020008670200086702000867020008DB
:1001600067020008670200086702000867020008CB
:1001700067020008670200086702000867020008BB
:10018000670200086702000800F002F800F04FF86C
:100190000AA090E8000C82448344AAF10107DA45E2
:1001A00001D100F044F8AFF2090EBAE80F0013F0E5
:1001B000010F18BFFB1A43F001031847F038000085
:1001C00010390000103A24BF78C878C1FAD8520715
:1001D00024BF30C830C144BF04680C6070470000C1
:1001E0000023002400250026103A28BF78C1FBD840
:1001F000520728BF30C148BF0B607047662903F023
:10020000EC83642900F07880782900F0B180002028
:1002100070471FB503F0D7FB00F006FC0400002078
:10022000002103F0ADF8E0601FBD10B510BD00F077
:10023000FBFC1146FFF7EDFF02F088FF00F019FD0F
:1002400003B4FFF7F2FF03BC02F070FF09488047D8
:1002500009480047FEE7FEE7FEE7FEE7FEE7FEE7A8
:10026000FEE7FEE7FEE7FEE704480549054A064BC0
:1002700070470000492A000889010008D0020020C8
:10028000D0080020D0040020D004002070470000D7
:100290000FB4044910B503AA029800F0B3FB10BCD8
:1002A0005DF814FB1400002070B5044685690068F1
:1002B000C10601D5302600E02026C00707D070BD5A
:1002C000D4E9012130469047206A401C20626D1E0F
:1002D000F6D570BD70B5044685690078C00707D1B2
:1002E00070BDD4E9012120209047206A401C206283
:1002F0006D1EF6D570BD00002DE9F04106460024C4
:1003000010687529314616A510D0AFF3008000287B
:1003100002DA404213A507E031688A0701D512A529
:1003200002E0490704D511A5012401E0AFF30080E4
:1003300000210A2206F1240709E0B0FBF2FCB0FB21
:10034000F2F302FB1C00303078541846491C002898
:10035000F3D123462A463046BDE8F04100F0D4B838
:10036000000000002D0000002B0000002000000015
:1003700070B504460D4621461068AFF30080218811
:10038000090502D50F4A7A4402E00E4A7A440E3239
:10039000002104F1240305E000F00F060009965D3A
:1003A0005E54491C0028F7D120780023000704D5AB
:1003B000702D02D009B1022311322046BDE87040F1
:1003C00000F0A2B8543600002DE9F05F89460446DB
:1003D0004FF0000ADFF824B1FB44C0F820A020460B
:1003E000E168884700287DD0252806D0D4E901217E
:1003F0009047206A401C2062F1E700255F462046B6
:10040000E16888472028064607DB312E05D2B81957
:1004100010F8200C08B10543F1E7A80701D525F035
:100420000405C4F81CA00027C4F818A02A2E09D07F
:10043000304602F074FE38B304EB8708303EC8F84B
:10044000186019E059F8041B204604EB87029161FB
:10045000E1688847012F064618D1E069002820DAB4
:1004600025F020051DE0D8F8180000EB800006EB11
:1004700040003038C8F818002046E1688847064632
:1004800002F04DFE0028EED1012F0AD02E2E08D109
:100490002046E16888477F1C0646022F45F020056C
:1004A000C4DBA069002803DA404245F00105A061E1
:1004B000E80701D025F01005A6B1A6F141001928E2
:1004C00002D8203645F400654A463146204625606C
:1004D0004D46FFF793FE60B1012807D0ED1D25F0D2
:1004E000070000E007E000F1080978E705F10409DA
:1004F00075E730467AE7206ABDE8F09F2A360000AB
:1005000070477047704770472DE9F0470D46994690
:100510009246044600F124080168880604D5E06983
:1005200021F01001216000E00120A84201DD471BFD
:1005300000E00027A1697A1902EB0900081AA061FE
:100540002078C00602D42046FFF7AEFE002608E061
:10055000D4E901211AF806009047206A401C761C55
:1005600020624E45F4DB2078C0060AD52046FFF70E
:100570009BFE06E0D4E9012130209047206A401C10
:100580002062381EA7F10107F4DC07E0D4E901215D
:1005900018F805009047206A401C2062281EA5F12B
:1005A0000105F3DC2046FFF795FE2078000602D512
:1005B0000220BDE8F0870120FBE770472DE9FF4FDF
:1005C0000C461E464FF0FF378BB0D2E90001DDF834
:1005D00060800A908A46C1F30A5505B93D4600215C
:1005E00008464FF00000BAF1000F00F4400005DAB1
:1005F00000EB80004FF4400101EA50004FEA9059AF
:10060000B9F1010F00DDB9460A9850EA4A000ED050
:1006100044F61050A5F2FF3545432F14B8F1000FF2
:100620001ED07542291E1EDDC9F100021CE0B8F182
:10063000010F4FF0000001D0302103E0F24305E04C
:100640002154401CB042FBDB3046002200212154E3
:100650000B99C1F80880C1E900200FB0BDE8F08F08
:10066000BD1B6D1CDEE74A4600DA694206A800F0B1
:1006700065FA06AB93E8070003AB83E80700504632
:100680000A9900F03FFB8DE80700A0F500501F38E5
:1006900000900398002D09DD42F21F014A460844EC
:1006A00003A90390684600F09EFD08E0A0F5005005
:1006B0004A461F3803A90390684600F0A8FD8DE85C
:1006C00007000004000C03D04FF0FF30410800E0A9
:1006D0001046B8F1000F03D00022009215461EE02C
:1006E000751E05D400F0A4F9303262556D1EF9D59F
:1006F000B3460122084302D000227F1C04E0207888
:10070000302801D100227F1E002A099786D01DE0E3
:10071000112D07DA00F08CF9303262556D1C50EA69
:100720000102F5D1084302D00098C8B10EE00021C3
:10073000681E05E0235C625C63542254401E491C21
:100740008142F7DBAB46A81B401E0990002004F84D
:100750000B000B98099AC0F80880C0E9002B7CE7D1
:1007600011264FF0000859E72DE9F04F884604465E
:10077000D21D22F0070191B0D1E90001CDE90A01B3
:1007800002F0B5FC02460B98C00F01D02D2007E007
:100790002068810701D52B2002E0202101EAC0005A
:1007A000032A099001D0072A05DB0346414620466B
:1007B00000F084F90BE12078800601D5E06900E0C3
:1007C0000620B8F1650F814606D0B8F1660F18D043
:1007D000B8F1670F70D131E00020B9F1110F00902E
:1007E00001DB112301E009F101030AAA01A90CA808
:1007F000FFF7E4FEDDE90C70002609F101058346F0
:1008000047E001204B4600904FF000470AAA01A99B
:100810000CA8FFF7D3FEDDE90DB00C995D4600266C
:1008200010B909F101000D18B9EB050003D4C0F1AE
:10083000FF3609F10105A5EB09002BE0B9F1010F25
:1008400001DA4FF001090020B9F1110F009048467C
:1008500001DD112300E003460AAA01A90CA8FFF755
:10086000ADFEDDE90C704D4600268346207800077A
:100870000AD4AB4500DA5D4601A8012D04DD41191B
:1008800011F8011C302907D04F4502DA17F1040F87
:1008900004DA012082460FE06D1EEEE7002F02DC35
:1008A000ED1B3E4403E0781CA84200DD7D1CB81B14
:1008B00000F1010A4FF000472078000703D4AA4551
:1008C00001DB4FF0FF3A0021B7F1004F0DF1430873
:1008D0008DF8431024D002202B23002F01DA7F4211
:1008E0002D230A21021EA0F1010000DC5FB197FB5D
:1008F000F1FC97FBF1F201FB1C7C17460CF1300C6C
:1009000008F801CDEEE7A8F1010003702188090580
:1009100001D5452100E06521A0F1010800F8011C86
:1009200009980FA9A1EB0807FF1D00B1012041198B
:1009300001EBEA70A1693844081A401EA0612078D2
:10094000C00602D42046FFF7AFFC099828B1D4E9CD
:1009500001219047206A401C20622078C00622D5E1
:100960002046FFF7A1FC1EE0002E04DBB34502DDAC
:1009700001A8805D00E03020D4E901219047206A81
:10098000401C2062761CAAF101005FEA000A0AD12D
:1009900000F04AF8C0680168405CD4E90121904742
:1009A000206A401C2062281EA5F10105DCDC07E05E
:1009B000D4E9012118F8010B9047206A401C2062FD
:1009C000381EA7F10107F3DC2046FFF783FC032064
:1009D00011B043E601694A1C02610878704700B50E
:1009E0008FB0CDE901310021059105497944CDE968
:1009F000031011466846FFF7E7FC0FB000BD00008A
:100A0000E5FFFFFF074B70B50D467B44FFF7E7FF9F
:100A10000446284600F000F910B14FF0FF3070BDD9
:100A2000204670BD23270000004870479002002038
:100A300030B5B0F10A024FEA900E71F100034EEAB0
:100A4000817EB0EB0E0061EB91014FEA101E4EEA81
:100A5000017E10EB0E0041EB11114FEA102E4EEA11
:100A6000016E10EB0E0041EB11214FEA104E4EEAE1
:100A7000014E10EB0E0041EB1141401841F1000115
:100A80004FEAD00040EA41704FEAD10110EB8005F7
:100A90004FEA810444EA907444EB01046D1944EB7D
:100AA0000404521BA3414FF0000348BF0A3200D593
:100AB00030BD401C41F1000130BD00002DE9F04186
:100AC0001F46044603260168072A01F4006004DB80
:100AD00008B116A505E016A503E008B115A500E0CC
:100AE00015A521F010002060A069C01EA0610FB103
:100AF000401EA0612046FFF7D7FB4FB1D4E901218A
:100B000038469047206A401C2062C01C206206E0E4
:100B1000206AFAE7D4E9012115F8010B9047761E07
:100B2000F8D22046FFF7D6FBBDE8F0814E414E00DB
:100B30006E616E00494E4600696E66002DE9F04711
:100B4000814616468AB0334878440DC88DE80D00BA
:100B500030487844801C03AC0DC884E80D0041F691
:100B60009B300844372190FBF1F290FBF1F5A5F1A1
:100B7000800501FB12041B3C02D56442012000E009
:100B80000020DFF890A080460027FA44AAF1BE0AB0
:100B90000DE0E00709D03246684607EB47010AEB53
:100BA000810100F034FB8DE8070064107F1C002CED
:100BB000EFD1184F7F44AC3F18E0E80714D007EBA3
:100BC00004100DF1180A90E80E008AE80E00C068C3
:100BD000F04201D198190890324606A903A800F006
:100BE00016FB03AB83E807006D10641C002DE4D1F5
:100BF00032466946B8F1000F03A802D000F0F3FABC
:100C000001E000F004FBC9E90001C9F808200AB0BE
:100C1000BDE8F087482F0000007B00F0800070479F
:100C200000487047700200207546FFF7F9FFAE4696
:100C300005006946534620F00700854618B020B5E8
:100C4000FFF712FBBDE820404FF000064FF0000711
:100C50004FF000084FF0000B21F00701AC46ACE864
:100C6000C009ACE8C009ACE8C009ACE8C0098D46D1
:100C7000704710B50446AFF300802046BDE8104031
:100C8000FFF7DEBA4FF0013C50F8042B51F8043B5B
:100C90009A4221D1A2EB0C03934313EACC1317D150
:100CA00050F8042B51F8043B9A4215D1A2EB0C03E7
:100CB000934313EACC130BD150F8042B51F8043BA7
:100CC0009A4209D1A2EB0C03934313EACC13DBD075
:100CD0004FF00000704700BFD01A01BAB1FA81F19D
:100CE00001F0180122FA01F0CB40C1F12001DBB282
:100CF000C0B2C01A2CFA01F3D11A914311EAC31100
:100D0000E6D170475FEA400C08BF91F0000F4FEA50
:100D10008C234FEAC12243EA51514FEA1C5018BFBD
:100D200000F5F0404FEA300018BF41F000415FEAA3
:100D30006C5C00F02980BCF1FF3F08BF40F08040B0
:100D40007047130C06BF12044FF0100C4FF0000C4C
:100D5000130E04BF12020CF1080C130F04BF120192
:100D60000CF1040C930F04BF92000CF1020CD30F92
:100D700004BF52000CF1010C11464FF00002A0F12B
:100D80001F00A0EB0C00704711F0004F08BF704728
:100D900031F000413FF4D5AF0B0C06BF09044FF012
:100DA000100C4FF0000C0B0E04BF09020CF1080CE4
:100DB0000B0F04BF09010CF1040C8B0F04BF890059
:100DC0000CF1020CCB0F04BF49000CF1010CCCF16B
:100DD0002003A0EB0C0022FA03F302FA0CF241EA22
:100DE000030100F10100704720F07F4C80EA03000E
:100DF00023F07F47ACEB070303F57C5300F0004082
:100E000003F1FF032DE980494FEA154B09B44FEA7E
:100E1000144325EA0B4E24EA03480FF2042606EB9E
:100E2000132749083E785FEA320203FB0667C7F5DD
:100E3000000707FB06F64FEA54374FEAD64606F19D
:100E4000020607FB066CCCF1005C4FEA1C472CEA5B
:100E5000074C07FB06F40CFB06F504EB15464FEABE
:100E6000961634BF00204FF000404FEAD13706FB02
:100E700007FC4FEA1C4C0CFB0BF7D21B03FB0CF7D7
:100E800061EB07010CFB0EF7B0EB074072EB17426A
:100E90000CFB08F734BFA2EB0742B2EB074261EB51
:100EA00017414FEA0C444FEA910706FB07FC4FEA53
:100EB0001C4C0CFB0BF7B0EBC74072EB573203FB3B
:100EC0000CF734BFA2EBC742B2EBC74261EB57311C
:100ED0000CFB0EF7B0EBC70072EB57720CFB08F778
:100EE00034BFA2EBC702B2EBC70261EB5771039F9D
:100EF0004FEA816141EA921104EBCC044FEAD13709
:100F00004FEA826206FB07FC42EA90124FEA8060D9
:100F10004FEA1C4C0CFB0BF7D21B03FB0CF761EBED
:100F200007010CFB0EF7B0EB074072EB17420CFB0E
:100F300008F734BFA2EB0742B2EB074261EB17415F
:100F40004FEA8C554FEA910704EB9C2406FB07FC03
:100F50004FEA1C4C0CFB0BF7B0EBC74072EB57325F
:100F600003FB0CF734BFA2EBC742B2EBC74261EB05
:100F700057310CFB0EF7B0EBC70072EB57720CFB4E
:100F800008F734BFA2EBC702B2EBC70261EB57719F
:100F900015EB4C254FEA816141EA92114FEA8262DA
:100FA0004FEAD13742EA901206FB07FC44F10004F5
:100FB0004FEA80604FEA1C4C0CFB0BF7D21B03FB83
:100FC0000CF761EB07010CFB0EF7B0EB074072EB7F
:100FD00017420CFB08F734BFA2EB0742B2EB074203
:100FE00061EB174115EB1C154FEA813141EA924143
:100FF0004FEA823242EA90424FEA80304FEA0C7662
:1010000044F1000448EA03434EEA0B484FF0000E57
:10101000B2EB080C71EB030724BF624639464EEB76
:101020000E0E4FF0000B0018524149414BEB0B0BD9
:10103000B2EB080C71EB03077BF1000B24BF624697
:1010400039464EEB0E0E4FF0000B0018524149414D
:101050004BEB0B0BB2EB080C71EB03077BF1000BB6
:1010600024BF624639464EEB0E0E51EA020718BF06
:1010700046F0010616EB0E7655F1000254F1000120
:1010800003D5BDE88901BDE80088BDE88901BDE858
:101090000048B619524141EB0101A3F10103704729
:1010A00080807F7E7D7C7B7A7978777676757473A5
:1010B000727171706F6E6E6D6C6C6B6A6A69686864
:1010C000676666656464636362616160605F5F5EFA
:1010D0005E5D5D5C5C5B5B5A5A5959585857575670
:1010E00056555555545453535252525151505050D5
:1010F0004F4F4F4E4E4D4D4D4C4C4C4B4B4B4A4A27
:101100004A4949494848484747474746464645456A
:1011100045444444444343434342424242414141A3
:10112000002B26D4770021D01CB54FEA370703B433
:101130004FF010004FF010014FF000000FBCBDE861
:1011400010400BF1010BBBF1010F08BF5FEA17075D
:1011500022BF12F1010211F101014FF0004143F1F0
:10116000000300F0004043EA00007047F9D357083D
:10117000DAE746EA064613F1400F4FEA16461FDD4E
:1011800013F1200FDFBF16430A46002120335B42D4
:10119000C8D0C3F1200746EA064602FA07F74FEA2D
:1011A000164646EA0706C3F1200722FA03F201FABF
:1011B00007F721FA03F14FF0000342EA0702B1E713
:1011C00046EA020646EA06464FEA164646EA01069F
:1011D000BCBF46EA0646360C4FF000034FF0000253
:1011E0004FF000019EE72DE9C048934630B491E8E6
:1011F000380007C831EA400C48BF34EA430C03D535
:10120000FFF7F2FDFFF78CFFF0BCBDE800882DE989
:10121000C048934630B491E8380007C810F0804FBA
:1012200008BF13F0804F03D100F005F8FFF778FFF7
:10123000F0BCBDE8008820F07F4780EA030023F07F
:101240007F4C07EB0C03A3F57C5300F00040A3F1A7
:10125000FE0392F0000F00F0B38095F0000F00F055
:1012600077802DE901494FEA11404FEA144621EAFF
:10127000004800FB06FC24EA064708FB06F607FBCD
:1012800008F800FB07F718EB06484CEB164C4FEA42
:10129000124B18EB07484FEA15464CEB174022EA71
:1012A0000B4E0BFB06FC25EA06470EFB06F607FB7A
:1012B0000EFE0BFB07F71EEB064E4CEB164C4FF0E9
:1012C00000061EEB074E4CEB174B18EB0B0840F1DA
:1012D000000018EB0E0B58EB000840F100008F1ACD
:1012E0004FF000013CBFC943661B14BFB5EB040CB3
:1012F00000213CBFC943F61B4FEA17444EEA8E0E4D
:1013000027EA04454FEA1C4704FB07622CEA074C16
:1013100005FB07F70CFB05F604FB0CFC16EB074678
:1013200042EB174216EB0C4642EB1C421BEB060647
:1013300058EB0202414146EA9E0601D5BDE801890B
:10134000B619524141EB0101A3F10103BDE8018946
:101350004FEA14454FEA114724EA054621EA074CB3
:1013600005FB07F406FB07F70CFB06F105FB0CFC7D
:1013700011EB074144EB17444FEA124711EB0C41C4
:1013800044EB1C4422EA074C05FB07F206FB07F777
:101390000CFB06F605FB0CFC16EB074642EB17426E
:1013A00016EB0C4642EB1C456A1854F1000148BF8D
:1013B0007047B619524141EB0101A3F10103704797
:1013C00095F0000F37D04FEA11424FEA144721EA57
:1013D000024624EA074C02FB07F106FB07F70CFB69
:1013E00006F402FB0CFC14EB074441EB17414FEAF7
:1013F000154714EB0C4441EB1C4125EA074C02FB5A
:1014000007F506FB07F70CFB06F602FB0CFC16EBD8
:10141000074645EB174516EB0C4645EB1C421219E7
:1014200051F1000148BF7047B619524141EB01012B
:10143000A3F1010370474FEA14454FEA114724EA2C
:10144000054621EA074C05FB07F106FB07F70CFBF5
:1014500006F24FF0000605FB0CFC12EB074241EBD5
:10146000174112EB0C4251EB1C4148BF70479218D8
:1014700041EB0101A3F10103704721B1826842F001
:101480000102826003E0826822F0010282607047FC
:101490000021084A1168084A1140D0E900231A4384
:1014A00083681A43C3681A431143044AC2F80413F9
:1014B0007047000004230140E030FCFF00200140A1
:1014C00021B1826842F48072826003E0826822F473
:1014D000807282607047000030B502460020002311
:1014E0005068104C20400D790C6844EA05242043D4
:1014F000506090680C4C2040D1E903542C438D6817
:101500002C434D7944EA450420439060D06A20F48E
:1015100070000C7D641EE4B2234340EA0350D062A5
:1015200030BD0000FFFEFFFCFDF7FFC038B10849E9
:10153000096841F40051074AC2F8041306E004495F
:10154000096821F40051034AC2F8041370470000EF
:101550000423014000200140F0B504460D46002060
:101560000021092D11DDE068A5F10A0606EB46070A
:10157000072606FA07F18843A5F10A0606EB460698
:1015800003FA06F10843E0600CE0206905EB45072B
:10159000072606FA07F1884305EB450603FA06F12C
:1015A00008432061072A0FDA606B561E06EB860798
:1015B0001F2606FA07F18843561E06EB860605FA33
:1015C00006F10843606322E00D2A0FDA206BD61F74
:1015D00006EB86071F2606FA07F18843D61F06EB9F
:1015E000860605FA06F10843206310E0E06AA2F1DE
:1015F0000D0606EB86071F2606FA07F18843A2F1BF
:101600000D0606EB860605FA06F10843E062F0BD1A
:10161000816841F080418160704700210160017163
:1016200041718160C160016101210175704700BF96
:10163000FEE721B1026842F00102026003E00268A5
:1016400022F001020260704710B500220268134BBD
:101650001A40CC680B6823434C6923438C692343AD
:10166000CC6923430C6A23434C6A23438C6A23438B
:101670004C6B23438C6B23431A430260426922F074
:101680000702D1E90B3423431A4342610B694360DB
:101690004B6883608B68C36010BD00003F801CF006
:1016A0007047000000B587B00121084600F0A0FD9A
:1016B0000121102000F0BCFD00208DF81A0001204F
:1016C0008DF81B0002208DF819008DF8180000021B
:1016D000059005A91B4800F045F802208DF8180078
:1016E0004002059005A9174800F03CF807220A219E
:1016F000144800F07FF807220921124800F07AF818
:101700004FF4E13001900020ADF80800ADF80A0078
:10171000ADF80C00ADF810000C20ADF80E0001A9DA
:10172000094801F04BFC00F002FD012240F2255176
:10173000054801F01DFC0121034801F0D6FB07B06C
:1017400000BD0000000002400010014001B5044946
:101750000098086000BF024800680028FBD108BD5F
:1017600010000020F0B50A4600210023002400BF2D
:101770003DE0012505FA01F3156805EA03049C42E2
:1017800034D105684F000326BE40B5430560157986
:101790004E00B5400668354305601579012D02D02D
:1017A0001579022D16D185684F000326BE40B5433A
:1017B000856055794E00B54086683543856045683B
:1017C00001268E40B5434560456896798E40B6B295
:1017D00035434560C5684F000326BE40B543C5602C
:1017E000D5794E00B540C6683543C560491C1029FF
:1017F000BFD3F0BDF0B5002300244D07ED0E02FA73
:1018000005F3CE1000F1200555F826504E07F70ECF
:101810000F26BE40B543CF1000F1200646F82750F2
:10182000CE1000F1200555F8265045EA0304CE10ED
:1018300000F1200545F82640F0BD00BFFEE721B1CC
:10184000028842F48062028004E002884FF6FF338F
:101850001A400280704770B502460024002500231C
:101860000020958A138B1B0445EA030626F07F446B
:1018700004EA01068E4201D1012000E0002070BD83
:10188000002221F07F42D3438382704721B1028836
:1018900042F00102028004E002884FF6FE731A4013
:1018A0000280704770B505460E4614464FF420403E
:1018B0006549086009E064490868411E624A116090
:1018C00018B9092000F04AFB70BD4FF400315F48A1
:1018D00000F072FA0028EED101215C4800F054FAC1
:1018E0004FF480505849086009E057490868411E84
:1018F000554A116018B90A2000F030FBE4E754495A
:101900005248FFF7A8FF0028EFD052480178002284
:101910004E4800F018FB4FF480504B49086009E036
:1019200049490868411E484A116018B90B2000F067
:1019300015FBC9E748494548FFF78DFF0028EFD060
:1019400001214248FFF7A2FF3146404800F003FB67
:101950004FF480503C49086009E03B490868411E4B
:10196000394A116018B90C2000F0F8FAACE73A498E
:10197000891C3648FFF76FFF0028EED0012133485D
:1019800000F002FA4FF480502F49086009E02E4918
:101990000868411E2C4A116018B90D2000F0DEFACB
:1019A00092E72B492948FFF756FF0028EFD0294836
:1019B00001780122254800F0C6FA4FF480502249F0
:1019C000086009E020490868411E1F4A116018B9E3
:1019D0000E2000F0C3FA77E71D49491C1B48FFF7AA
:1019E0003AFF0028EED026E0012C07D1002117484D
:1019F000FFF725FF0121154800F0D2F94FF42040F0
:101A00001149086009E010490868411E0E4A11603A
:101A100018B9032000F0A2FA56E70D493F310B48F0
:101A2000FFF719FF0028EED0084800F088FA287068
:101A30006D1C601E84B2002CD6D101210348FFF733
:101A4000FEFE012040E700005C0000200054004042
:101A50000100030058000020820007002DE9F04734
:101A600007460D4614464FF00008C146C246002600
:101A70002846E91705EB5171C910A5EBC10101F02A
:101A8000FF0ACAF10800C6B22046E11704EB517103
:101A9000C1F3C708E11704EB5171C910A4EBC101F0
:101AA00001F0FF09BAF1000F28D1B8F1000F07D1FA
:101AB0004A462946384600F073F800F00BF960E01A
:101AC0000AE008222946384600F06AF800F002F9D8
:101AD00005F10800C5B20837B8F10000A8F101010E
:101AE00001F0FF08EDD1B9F1000F4AD04A4629466E
:101AF000384600F055F800F0EDF842E0B8F1000F7C
:101B000007D14A462946384600F04AF800F0E2F884
:101B100037E0A01B84B22046E11704EB5171C1F3FA
:101B2000C708E11704EB5171C910A4EBC10101F022
:101B3000FF094EB132462946384600F031F800F030
:101B4000C9F8A819C5B237440AE008222946384620
:101B500000F026F800F0BEF805F10800C5B208371D
:101B6000B8F10000A8F1010101F0FF08EDD1B9F1D1
:101B7000000F06D04A462946384600F011F800F01A
:101B8000A9F8BDE8F087000010B500F0CDF800F02E
:101B9000A5F9A0200149088010BD000058000020D0
:101BA00070B504460E4615464FF42040444908607F
:101BB00009E043490868411E414A116018B90420F0
:101BC00000F0CCF970BD4FF400313E4800F0F4F85D
:101BD0000028EED101213B4800F0D6F84FF48050A8
:101BE0003749086009E036490868411E344A1160E7
:101BF00018B9052000F0B2F9E4E733493148FFF79E
:101C00002AFE0028EFD03148017800222D4800F04C
:101C10009AF94FF480502A49086009E02849086879
:101C2000411E274A116018B9062000F097F9C9E74C
:101C300027492448FFF70FFE0028EFD031462148FE
:101C400000F089F94FF480501D49086009E01C49F3
:101C50000868411E1A4A116018B9072000F07EF981
:101C6000B0E71B49891C1748FFF7F5FD0028EED0A7
:101C70001AE02178134800F06EF9641C4FF480508C
:101C80000F49086009E00E490868411E0C4A1160BE
:101C900018B9082000F062F994E70D49891C094839
:101CA000FFF7D9FD0028EED0281EA5F10101CDB225
:101CB000DFD10121034800F073F8012082E7000022
:101CC0005C00002000540040010003005800002088
:101CD0008200070008B50020009000BF01210F48D6
:101CE00000F052F814210D4800F01EF900900C4845
:101CF00001780022094800F026F91421074800F075
:101D000013F900F002000028E8D006490348FFF765
:101D1000B7FD0121014800F043F808BD0054004020
:101D200058000020000400101CB50121480500F0F7
:101D30006FFA0121022000F05BFA04220821114809
:101D4000FFF758FD042209210E48FFF753FD4FF419
:101D50008070009002208DF804008DF805000120AD
:101D60008DF8060000208DF8070069460548FFF74A
:101D7000F9FC4FF40070009069460248FFF7F2FC4E
:101D80001CBD00000004024021B1028842F48072B0
:101D9000028004E002884FF6FF631A400280704719
:101DA00021B1028842F40072028004E002884FF6FA
:101DB000FF531A40028070470CB5024600200023F2
:101DC0000193009300920B0F019321F07F41019B3F
:101DD0001BB1009B1433009303E0090C009B1833E4
:101DE0000093009B1B680B400BB1012000E000201A
:101DF0000CBD00002DE9FF4704460D460026B14604
:101E00000427DFF8CC80A6884FF6C07006406846ED
:101E100000F01EFADDF808802E48B8FBF0F01FFA3B
:101E200080F946EA0906A68020884FF6FE71084030
:101E3000208000262849286888420CD8286840005D
:101E4000B8FBF0F087B2042F00DA04273E4309F113
:101E50000100208427E0E8884BF6FF71884206D114
:101E6000286800EB4000B8FBF0F087B209E0286872
:101E700000EBC00101EB0010B8FBF0F087B247F4B3
:101E80008047C7F30B0008B947F0010747F400404B
:101E900006434FF4967009FB00F04FF47A7190FB03
:101EA000F1F0401C2084A683208840F001002080AF
:101EB00026884FF6F5300640A8886989084306430E
:101EC0002680A889298908432081BDE8FF87000072
:101ED00000127A0040420F00A08601001FB50020CA
:101EE000ADF804004BF6FF70ADF806000A20ADF81F
:101EF00008004FF48060ADF80A000001ADF80C0056
:101F00000748009069460748FFF774FF012105481C
:101F1000FFF7BCFC01210348FFF791FC1FBD000047
:101F2000801A06000054004008B5024600200090C8
:101F300000920098084400900098008808BD01466F
:101F4000088AC0B2704712B141F0010101E001F00E
:101F5000FE010182704701827047000010B50446FF
:101F6000214602A0FEF794F9002010BD3C3C2D450F
:101F70004550524F4D2D4552524F522D3E3E204915
:101F8000324320B5C8B4FDB3ACCAB1216572726FDB
:101F900072436F6465203D2025640A0010B52CA0B3
:101FA000FEF776F9002413E031490C550846015D2F
:101FB00030A0FEF76DF9E11704EB11710911A4EBE4
:101FC00001110F2902D12DA0FEF762F9601C84B225
:101FD000FF2CE9DD4FF4807200212548FFF73EFD1C
:101FE00027A0FEF755F92DA0FEF752F94FF48072A5
:101FF00000213248FFF756FC002421E02F48005D05
:102000001B49095D884209D02C48015D19A0FEF7E3
:102010003FF92BA0FEF73CF9002010BD2748015DD9
:1020200014A0FEF735F9E11704EB11710911A4EBC7
:1020300001110F2902D111A0FEF72AF9601C84B208
:10204000FF2CDBDD2DA0FEF723F90120E5E70000E2
:102050003C3C2D454550524F4D2D494E464F2D3E4F
:102060003E20D0B4C8EBB5C4CAFDBEDD0A000000F6
:102070006000002030782530325820000A0D000022
:102080003C3C2D454550524F4D2D494E464F2D3E1F
:102090003E20D0B4B3C9B9A60A0000003C3C2D458F
:1020A0004550524F4D2D494E464F2D3E3E20B6C114
:1020B000B3F6B5C4CAFDBEDD0A0000006001002011
:1020C0003C3C2D454550524F4D2D4552524F522DBF
:1020D0003E3E20B4EDCEF33A4932432045455052BE
:1020E0004F4DD0B4C8EBD3EBB6C1B3F6B5C4CAFDFF
:1020F000BEDDB2BBD2BBD6C20A0000003C3C2D45BF
:102100004550524F4D2D494E464F2D3E3E204932AF
:1021100043284154323443303229B6C1D0B4B2E2FC
:10212000CAD4B3C9B9A60A0000BFFEE7704708B514
:102130004FF4A06000F04AF825208DF8000001203F
:102140008DF801008DF802008DF80300684600F05C
:1021500001F808BD70B5002100230F22C4781CB31C
:10216000174C246804F4E064C4F5E064C4F3072168
:10217000C1F10404E3B20A4144789C40E1B284789E
:10218000144021430C07210E0E4C0578615504784C
:1021900004F01F050124AC4005786D11AD0005F178
:1021A000E025C5F8004109E0047804F01F0501248A
:1021B000AC40054D0678761145F8264070BD00000C
:1021C0000CED00E000E400E080E100E002490143A2
:1021D000024A1160704700000000FA050CED00E0B3
:1021E000014908627047000000000E42704700007D
:1021F00029B1064A12680243044B1A6004E0034AFC
:1022000012688243014B1A60704700003038024068
:1022100029B1064A12680243044B1A6004E0034ADB
:1022200012688243014B1A60704700004038024038
:1022300029B1064A12680243044B1A6004E0034ABB
:1022400012688243014B1A60704700004438024014
:10225000F0B5002100220024022500260223324F7F
:102260003F6807F00C0121B1042905D0082937D1B6
:1022700005E02E4F076036E02D4F076033E02A4F10
:102280003F1F3F68C7F38056274F3F1F3F6807F047
:102290003F036EB1264FB7FBF3F7DFF88CC0ACF10C
:1022A000040CDCF800C0CCF3881C07FB0CF40CE039
:1022B0001E4FB7FBF3F7DFF870C0ACF1040CDCF88D
:1022C00000C0CCF3881C07FB0CF4174F3F1F3F687E
:1022D000C7F301477F1C7D00B4FBF5F7076002E000
:1022E000124F076000BF00BF0F4F3F6807F0F001BB
:1022F0000909104F7A5C0768D74047600A4F3F686A
:1023000007F4E051890A0B4F7A5C4768D740876031
:10231000054F3F6807F46041490B064F7A5C4768F8
:10232000D740C760F0BD0000083802400024F40028
:1023300040787D010000002010B5014600220023F6
:1023400000204A11012A02D10A4C236808E0022A1F
:1023500003D1084C7034236802E0064C74342368BF
:1023600001F01F02012494401C400CB1012000E048
:10237000002010BD0038024001490860704700008D
:10238000800E474202460020044B186820F0EC60A3
:1023900042EA01031843014B1860704708380240B5
:1023A00002460020044B186820F0784042EA0103FE
:1023B0001843014B18607047083802400149086013
:1023C000704700003C0E4742002100F44072B2F515
:1023D000407F08D1094A116821F4F811084A0240E7
:1023E0001143064A1160054A68321268C0F30B03B4
:1023F0001A43024B68331A607047000008380240E5
:10240000FFFCFF0F014600BF080900EB80004200FF
:1024100001F00F001044C0B270470146002204E0F2
:10242000501CC2B2A1F10A00C1B20A29F8DA1007A1
:1024300041EA1060704700000EB501210807FFF760
:10244000E7FE0120FFF7CCFE0120FFF795FF00BF5C
:102450006120FFF771FF0028FAD04FF40070FFF7FA
:10246000B3FF0120FFF7AAFF00F088F97F20019059
:10247000FF20029000200090684600F045F810B957
:1024800001A0FDF705FF0EBD0A0D2052544320CADE
:10249000B1D6D3B3F5CABCBBAFCAA7B0DC200D0A16
:1024A0000000000008B50022009200200021104A20
:1024B000126802F04002CAB9421E0D4B1A6000BFFA
:1024C0000B4A126802F04001009A521C0092009AD6
:1024D000B2F5803F01D00029F2D0054A126802F01F
:1024E00040020AB1012002E0002000E0012008BD06
:1024F0000C2800400348006820F080000149086073
:10250000704700000C28004030B504460025CA2062
:102510001549086053200860FFF7C4FF00B91DE0AB
:1025200011481C38006820F040000F491C39086031
:1025300008460068216808430B491C3908600A49AD
:102540001439A068086008460068A18840EA014084
:10255000054914390860FFF7CDFF0125FF20024926
:102560000860284630BD00002428004008B5014618
:102570000020009004480090009800EB810000903B
:102580000098006808BD0000502800402DE9F04187
:1025900005460C46002600274DB9607800F0100073
:1025A000102804D1607820F010000A30607005B95E
:1025B00008E06078FFF726FF0646A078FFF722FFC5
:1025C000064600BF55B1E0780004617840EA01207A
:1025D000A1780843217840EA413611E0E078FFF71E
:1025E0001CFF4FEA00486078FFF717FF48EA002811
:1025F000A078FFF712FF48EA0008207848EA403642
:10260000CA201249086053200860FFF74BFF08B941
:10261000002714E00E4830400C4920390860FFF7CD
:1026200069FF0A481C38006800F0200030B900F04B
:10263000A5F808B9002702E0012700E00127FF20E4
:10264000024908603846BDE8F081000024280040B7
:102650003FFFFF002DE9F04105460C46002600270C
:102660004DB92E48006800F0400000B102E00020A3
:10267000E07000BF0DE02948006800F0400020B184
:102680002078FFF7BFFE064602E00020E07000BFA2
:1026900000BF55B120780004617840EA0120A1789C
:1026A0000843E17840EA014611E02078FFF7B5FEE3
:1026B0004FEA00486078FFF7B0FE48EA0028A078AB
:1026C000FFF7ABFE48EA0008E07848EA0046CA2077
:1026D00012491C31086053200860FFF7E3FE08B977
:1026E000002713E00E4830400C4908390860FFF716
:1026F00001FF0A48006800F0200030B900F03EF801
:1027000008B9002702E0012700E00127FF20034964
:102710001C3108603846BDE8F08100000828004000
:102720007F7F7F001CB500208DF807000D208DF8FD
:10273000040023208DF8050021208DF8060001A952
:102740000020FFF787FF43F2F221002000F046F857
:1027500005208DF800001E208DF8020003208DF862
:10276000010012208DF8030069460020FFF70EFFDC
:1027700043F2F221002000F031F81CBD08B5002220
:10278000009200200021CA22134B1A6053221A60C3
:10279000114A183A126822F0A0020F4B183B1A6037
:1027A00000BF0D4A183A126802F02001009A521C2C
:1027B0000092009AB2F5003F01D00029F1D0064AFC
:1027C000183A126802F020020AB1012000E000204D
:1027D000FF22014B1A6008BD2428004008B50022E2
:1027E0000092044A0092009A02EB80020092009A42
:1027F000116008BD502800401CB501210220FFF7E0
:10280000F7FC01210220FFF7F3FC012000900320D8
:102810008DF8040000208DF8070069460748FEF790
:10282000A1FF0220009003208DF8040000208DF805
:10283000070069460148FEF795FF1CBD00040240F1
:1028400000B599B001218805FFF7D2FC38480B90FC
:1028500038480C9000200D9002200E9000200F9020
:102860004FF480601090400011901290C0101390AF
:10287000400214900020159001201690002017901F
:1028800018900A900AA92C48FEF7DEFE01212A487A
:10289000FEF7CFFE01210802FFF7CAFC0121480222
:1028A000FFF7C6FC062000904FF4803001908010A6
:1028B0000290002003906846FEF7EAFD04A8FEF7A8
:1028C000ACFE002004908DF8140001208DF8150056
:1028D000002006900790089001208DF8240004A99C
:1028E0001648FEF7F9FD0023012208211348FEF7E0
:1028F00033FE04A91248FEF7EFFD0023012209214F
:102900000F48FEF729FE0120FEF710FE01210B48BB
:10291000FEF7D6FD01210948FEF7AFFD0121084869
:10292000FEF7ABFD0548FEF773FE19B000BD0000D1
:1029300008230140540000201064024000200140A0
:102940000021014010B5FFF757FFFFF779FF10BDD9
:10295000704700000CB500200190009034480068DA
:1029600040F480303249086000BF3148006800F40C
:10297000003000900198401C0190009818B901980F
:10298000B0F5A04FF1D12A48006800F4003010B132
:102990000120009001E0002000900098012846D11D
:1029A00023484030006840F08050214940310860A1
:1029B0002048006840F440401E4908601C48083028
:1029C00000681B49083108600846006840F4004070
:1029D00008600846006840F4A05008601648091FC7
:1029E0000860081F006840F08070091F086000BF81
:1029F0000F48006800F000700028F9D040F2057020
:102A00000E4908600A480830006820F003000849B1
:102A1000083108600846006840F00200086000BF06
:102A200003480830006800F00C000828F8D10CBDFD
:102A3000003802400070004019544007003C02403A
:102A400010B500F01FFA10BD10B51548006840F42D
:102A50007000134908601348006840F001001149F4
:102A6000086000200F49083108600E4800680E49D0
:102A700008400C4908600D48091D0860081F0068DF
:102A800020F48020091F0860002006490C310860EE
:102A9000FFF760FF4FF0006001498039086010BD0A
:102AA00088ED00E000380240FFFFF6FE1030002401
:102AB00010B500240121880700F04EF8A8B30121C9
:102AC000880700F03AF800BF2BE004EB44001749F8
:102AD00001EB8000408810B304EB440001EB800060
:102AE0004088401E04EB4401104A02EB81014880FB
:102AF00004EB4400114601EB8000408878B90120C6
:102B000004EB440102F8210004EB4400114601EB00
:102B10008000808804EB440102EB81014880601C46
:102B2000C4B2034800688442CFD310BD180000200F
:102B300048000020CA4302827047CA43028270479D
:102B400021B1028842F00102028004E002884FF6BF
:102B5000FE731A400280704730B502460020002301
:102B60000024158A05EA0103958905EA010413B1D9
:102B70000CB1012000E0002030BD1AB183890B4365
:102B8000838102E083898B43838170470EB50121E5
:102B90000846FFF73DFB42F20F70019042F2CF0072
:102BA000ADF800000020ADF80800ADF8020069465D
:102BB0004FF0804000F00EF801218807FFF7BAFFC0
:102BC000012211469007FFF7D8FF01218807FFF780
:102BD000B7FF0EBD00220288184B98420ED0184B4A
:102BE00098420BD0B0F1804F08D0164B984205D0D8
:102BF000154B984202D0154B984204D14FF68F7373
:102C00001A404B881A43124B984207D0114B9842F6
:102C100004D04FF6FF431A400B891A4302804B68D9
:102C2000C3620B880385054B984202D0044B98423F
:102C300001D18B7A03860123838270470000014013
:102C4000000401400004004000080040000C004067
:102C5000001000400014004010B500F003F8FFF72A
:102C600095FF10BD08B54FF4E060FFF7AFFA1C20E8
:102C70008DF8000000208DF8010003208DF802007F
:102C800001208DF803006846FFF764FA08BD0000D4
:102C900010B5044602A1074800F014FA10BD000068
:102CA0006C656420697320626C696E6B696E672E57
:102CB0000D0A00000010014010B5044602A10748AB
:102CC00000F000FA10BD00006C636420697320728C
:102CD000756E6E696E672E0D0A00000000100140CF
:102CE00010B5044602A1094800F0ECF910BD00003F
:102CF000412046696C6520697320646F776E6C6F44
:102D00006164696E672E0D0A00000000001001402A
:102D100010B52DED088B04463749088800F0D0FC2B
:102D200041EC1B0B9FED350B53EC102B00F0DCFC42
:102D300041EC1A0B9FED330B53EC102B00F068FBAA
:102D400041EC190B9FED310B53EC102B00F060FBA5
:102D500041EC180B00F02AFB2E49086026494888F0
:102D600000F0AEFC41EC1B0B9FED240B53EC102B41
:102D700000F0BAFC41EC1A0B9FED220B53EC102B28
:102D800000F046FB41EC190B9FED200B53EC102B90
:102D900000F03EFB41EC180B00F008FB1D494860B9
:102DA000154801881CA0FDF773FA134841881AA042
:102DB000FDF76EFA174890ED000A10EE101A08465B
:102DC00000F090FD41EC180B53EC182B1BA0FDF705
:102DD0005FFA104890ED010A10EE101A084600F054
:102DE00081FD41EC180B53EC182B1DA0FDF750FA98
:102DF000BDEC088B10BD00005400002066666666BE
:102E000066660A40C3F5285C8FC2E53F00000000FB
:102E10000000B0404C0000200D0A2054686520637B
:102E2000757272656E742041442076616C75652000
:102E30003D20307825303858200D0A000D0A2054E6
:102E400068652063757272656E7420414443312059
:102E500076616C7565203D2025662056200D0A00A0
:102E60000D0A205468652063757272656E74204186
:102E70004443322076616C7565203D2025662056DE
:102E8000200D0A000448006820B103480068401E75
:102E900001490860704700001000002010B540F2A2
:102EA0002551094800F03AF860B140F22551064832
:102EB00000F00CF8044800F0EBF8C4B221460248D8
:102EC00000F0EBF810BD00000010014010B500222A
:102ED000002340F66A14A14200D100BF0A12012467
:102EE0009440A3B2DC43048010BD21B1828942F436
:102EF0000052828104E082894DF6FF731A4082817C
:102F0000704702460020B1F5007F00D100BF138852
:102F10000B400BB1012000E00020704770B5024665
:102F2000002400230025002040F66A16B14200D19B
:102F300000BFC1F3421501F01F03012606FA03F397
:102F4000012D02D19689334006E0022D02D1168A66
:102F5000334001E0968A33400C12012606FA04F44D
:102F60001688344013B10CB1012000E0002070BD80
:102F7000F0B50346002400260025002040F66A171D
:102F8000B94200D100BF1846C1F3421401F01F0638
:102F9000012707FA06F5012C01D10C3004E0022CC0
:102FA00001D1103000E014301AB107682F430760D8
:102FB00002E00768AF430760F0BD00002DE9FF475E
:102FC00005460E460024A14600BFA046B08900B1C8
:102FD00000BF2C8A24F44054F08804432C82AC892E
:102FE00041F20C608443B0883189084371890843F9
:102FF0000443AC81AC8A24F44074B0890443AC82AD
:103000006846FFF725F92048854202D01F488542CF
:1030100002D1DDF80C9001E0DDF80890A88900F4F9
:10302000004040B109EBC90000EB091031684900CC
:10303000B0FBF1F707E009EBC90000EB09103168BC
:103040008900B0FBF1F76420B7FBF0F00401200920
:10305000642101FB1078A88900F4004040B13220BF
:1030600000EBC800B0FBF1F000F00700044308E0FB
:10307000322000EB08106421B0FBF1F000F00F00EB
:1030800004432C81BDE8FF8700100140001401407B
:1030900001468888C0F308007047C1F308028280A7
:1030A000704700BFFEE770B504460D46294620462E
:1030B000FFF7F3FF00BF80212046FFF722FF002823
:1030C000F9D070BD70B506460C46002500BF615DA5
:1030D0003046FFF7E8FF6D1C605D0028F7D100BFA8
:1030E00040213046FFF70DFF0028F9D070BD03B432
:1030F00001984100009850EAC12018BF04204A0DF1
:1031000018BF40F0010040F2FF72B2EB515F08BF00
:1031100040F00200012808BF052002B07047303897
:103120000A2801D2012070470020704700BF704775
:1031300000BF054A128802F04002002AF9D0C2B24C
:10314000014B9A8070470000001001401CB559489F
:10315000FFF77EF8574840686422B0FBF2F1481E42
:10316000B0F1807F00D31BE0481E4FF0E022506199
:1031700050170F22002807DA13071D0E4E4B00F0E0
:103180000F04241F1D5503E013071C0E4B4B1C544A
:1031900000BF00204FF0E02290610720106100BFC7
:1031A0000520FEF7D3FA01210846FFF721F84FF476
:1031B0008070009003208DF8050002208DF8040037
:1031C00000208DF8060001208DF8070069463C4874
:1031D000FEF7C8FA00214FF48000FFF7D3F8012171
:1031E0000420FFF705F84FF40070009003208DF8DD
:1031F000050002208DF8040000208DF80600012053
:103200008DF8070069462F48FEF7ACFA4FF04051A1
:103210000020FFF7C5F8FEF745FA2BA12C48FFF771
:1032200051FF244841682BA0FDF732F821488168FE
:103230002EA0FDF72DF81F48C16832A0FDF728F831
:103240001C48016835A0FDF723F8FFF705FDFFF7DF
:1032500079FBFFF7F1F80020FFF788F943F2F2213C
:10326000884202D0FFF75EFA1AE07B20FFF764F88D
:1032700018B130A0FDF70CF806E07A20FFF75CF8F3
:1032800010B132A0FDF704F836A0FDF701F80121D6
:103290000807FEF7BDFF0120FEF7A2FFFFF76EFA59
:1032A000FEF772FCFEF77AFE02E0FF20FEF74EFA10
:1032B000FBE700006002002018ED00E000E400E001
:1032C000000002400008024068656C6C6F0000005E
:1032D0000010014048434C4B5F4672657175656E46
:1032E00063792020203D2025640D0A0050434C4B7B
:1032F000315F4672657175656E637920203D2025CA
:10330000640D0A0050434C4B325F4672657175651F
:103310006E637920203D2025640D0A0053595343E4
:103320004C4B5F4672657175656E6379203D202553
:10333000640D0A000D0A20B7A2C9FAB5E7D4B4B8E3
:10334000B4CEBB2E2E2E2E0D0A0000000D0A20B783
:10335000A2C9FACDE2B2BFB8B4CEBB2E2E2E2E0D2E
:103360000A0000000D0A20B2BBD0E8D2AAD6D8D0FD
:10337000C2C5E4D6C35254432E2E2E2E0D0A000091
:1033800010B500290AD00878002807D005487844ED
:10339000FDF778FC002801D0002010BD02487844D9
:1033A00010BD00003E0700003607000021F000427B
:1033B000A2F16052B2F5801F01F0004328BFD2F1A4
:1033C0007F6C0BD95FEA001C43EAC20242EB5070EB
:1033D00018BF704728BF20F001007047B2F5801F6A
:1033E000BCBF184670474FEA410C1CF5001F02D2C3
:1033F000084600F0EDBA70B500F020FA0000008930
:10340000FFF7F6BF4FF00040A0F5800070470000C6
:103410002DE9C04130B4DFF8A0C23CEA111418BF56
:103420003CEA131400F0EC8081EA03051CEA111455
:1034300044EAD57418BF1CEA131500F0C780A4EB4A
:1034400005044FF0004545EAC12145EAC32341EA9E
:10345000505143EA525304F17F74994204F5003409
:103460004FEAC0204FEAC22208BF904200F09C8081
:103470004FEA13650FF24016765D4FEA134506FBDF
:1034800005F7C7F1807706FB07F74FEAD737A7FBA9
:1034900003687642C8F58038A7FB06CE38BFA8F18E
:1034A000010807FB08E64FF0000EA6FB028CE6FBC6
:1034B00003CEDCF1000CCEF1004E38BFAEF1010EB0
:1034C000A6FB0C584FF000074FF00005E6FB0E87F7
:1034D000A1FB08C6A0FB07CE16EB0E0645F10005C2
:1034E000E1FB076515F1E04E7EBFA4F580345FEA8D
:1034F00046066D4116F1800745F100054FEA172792
:103500004FEA066647EA0567A6F1DE46B6F1805F38
:103510004FEA15251FD9384624F0010C05EBC4717C
:10352000BCF1FE6F01EB0C1102D8F0BCBDE80081CC
:1035300024425CBF01F5801E9EEAC47F02D4F0BC29
:10354000BDE80081244238D4F0BCA1F1C041BDE8FF
:10355000004100F0C1B94FEAD22242EA43524FEA99
:10356000D323A7FB02864FEAD02040EA415007FB55
:1035700003661EEA0E0F4FEAD12105FB026658BF13
:10358000A6EB0056B6EB00564FEA520E4EEAC37E4B
:1035900018EB0E0E56EB530EBDD518EB02085E412C
:1035A0007F1C55F10005B6E74FF480154FF000077A
:1035B0004FF000064FF00008ADE7F0BC4FF0000000
:1035C00001F1C04101F00041BDE8008111EA0C1F8A
:1035D0000CEA131500D00CE013EA0C1F00F0258054
:1035E0004FF00000F0BC81EA030101F00041BDE8AA
:1035F0000081F0BCBDE8004181EA030100F06CB934
:10360000F0BCBDE8004170B500F018F9097EFC3E41
:1036100000F007B881EA03014FF0000001F000411B
:10362000704781EA030100F057B9F0BCBDE80041E2
:103630004FF0000021497047FFFDFBF9F7F5F4F268
:10364000F0EEEDEBE9E8E6E4E3E1E0DEDDDBDAD83D
:10365000D7D5D4D3D1D0CFCDCCCBCAC8C7C6C5C49B
:10366000C2C1C0BFBEBDBCBBBAB9B8B7B6B5B4B3B2
:10367000B2B1B0AFAEADACABAAA9A8A8A7A6A5A49D
:10368000A3A3A2A1A09F9F9E9D9C9C9B9A99999861
:103690009797969595949393929191908F8F8E8E04
:1036A0008D8C8C8B8B8A8989888887878685858491
:1036B00084838382828181800000FF070000F87F7D
:1036C000B0FA80F310FA03F10AD0C3F11D0303F539
:1036D00080634FEA41504FEA035202EBD121704719
:1036E0004FF0000070470000DFF848C170B51CEAD9
:1036F000111E1EBF1CEA13159EEA0C0F95EA0C0F53
:1037000000F06F8081EA030423EA4C134EEAD47E72
:1037100021EA4C1141F4801143F48013AE44A1FB23
:10372000024CA0FB0365AEF17F7E361955EB0C050C
:10373000A1FB034C4CF10003A0FB021C16EB0C0692
:10374000654153F10003094218BF46F0010613F426
:10375000007F0BD14FEA03314FEA0530340341EAD1
:10376000155140EA16506FF003020AE04FEAC321F8
:103770004FEAC520F40241EA555140EA56506FF035
:10378000020202EB2E4201EB025585EACE710AD00D
:103790005FEA440C18BF24F0004450F1000041F1EE
:1037A000000120EAD47040F2FE7C624500D270BD78
:1037B000A84214BF4FF080444FF04044002E08BF91
:1037C0000024BEF1806FA8BFA1F1C041BDE87040E8
:1037D00080F282804FF0000001F1C04101F0004111
:1037E00070479EEA0C0F0CEA131518BF95EA0C0FF0
:1037F00006D04FF0000081EA030E0EF0004170BDCC
:1038000000F01CF88900013E00F007B800F009B88C
:103810004FEA430C5FEA5C5C08D081EA030100F0E8
:103820005BB84FEA410C5FEA5C5CF6D14FF00000F8
:10383000014970470000FF070000F87F0EF1020EFB
:103840002EF0030E5EF8046B364205D4012A43EBDA
:10385000030515F5001F12D8012841EB010C1CF5DA
:10386000001F0CD80ED14FEAD17C15F5001F0CEBD0
:103870004C0C0CF1020C08BF4CEBD37C04E04FF075
:10388000080C01E04FEAD37C0CEB4C0526FA05F658
:1038900006F00706B6F1040C06D20EEB860CBDE866
:1038A00070404CF0010C6047DFE80CF0090B02029D
:1038B0004FF000414FF00000A1F5002170BD194606
:1038C0001046012851EB010418BFD4F5001484BF41
:1038D000002001F0004170BD0808A0F500114FEA7A
:1038E0003101704743004FEAD30C4FEA3C0C434090
:1038F0001FBF40070CF1605113F0FE4F70471CF0E2
:10390000006F03D100200CF0004170470CF0004321
:1039100043EA507010B540EACC0000F00EF800BF4A
:10392000000000924FEA0001FFF7D6BF4FF00041C0
:103930004FF00000A1F5002170470EF1020E2EF0AD
:10394000030E5EF8044B244204D44FEA4102B2F164
:103950007F4F11D84FEA4003B3F17F4F0CD80ED1FF
:103960004FEAD07CB2F17F4F0CEB4C0C0CF1020C07
:1039700008BF4CEBD17C04E04FF0080C01E04FEAAB
:10398000D17C0CEB4C0324FA03F404F00704B4F1EB
:10399000040C06D20EEB840CBDE810404CF0010C78
:1039A0006047DFE80CF0070802024FF00040A0F586
:1039B000800010BD0846420018BFD2F1807288BF57
:1039C00000F0004010BD4FF04070E1EE100A70476B
:1039D000FF2141EAD050C0057047FCF7C5BE303129
:1039E0003233343536373839414243444546403026
:1039F00058003031323334353637383961626364D8
:103A000065664030780004000008000000000000F7
:103A1000000200010000100002400000000000A0B1
:103A20000000000005400000000000C80000000089
:103A30000C4000000000409C000000001940000005
:103A40000020BCBE0000000034400000BFC91B8E37
:103A500000000004B5400000504BCFD06607E2CF15
:103A6000010000006C4100003E8251AADFEEA73445
:103A700001000000D9420000DCB5A0E23A301F97F7
:103A8000FFFFFFFFB4450000FD25A0C8E9A3C14F1B
:103A9000FFFFFFFFFF3F000000000080000000006C
:103AA000FF3F00000000008000000000E83A00082E
:103AB0000000002060000000C4010008483B00082E
:103AC0006000002070080000E00100081C000000F9
:103AD00043000000F8FFFFFF0C0000000E00000094
:103AE0000F0000002E00000000000000010203048F
:103AF000010203040607080900000000000000009E
:103B00000000C800C8000000912C000800003C0024
:103B10003C000000B92C00080000640064000000B4
:103B2000E12C000800000A000A000000112D000826
:103B30000400000000000000000000000000000081
:083B40000000000000A00000DD
:040000050800018965
:00000001FF
